{
  "contractName": "DocRegistry",
  "abi": [
    {
      "anonymous": false,
      "inputs": [
        {
          "indexed": true,
          "internalType": "address",
          "name": "_sender",
          "type": "address"
        },
        {
          "indexed": false,
          "internalType": "bytes32",
          "name": "_hash",
          "type": "bytes32"
        }
      ],
      "name": "HashStored",
      "type": "event"
    },
    {
      "constant": false,
      "inputs": [
        {
          "internalType": "bytes32",
          "name": "_hash",
          "type": "bytes32"
        }
      ],
      "name": "storeHash",
      "outputs": [
        {
          "internalType": "bool",
          "name": "",
          "type": "bool"
        }
      ],
      "payable": false,
      "stateMutability": "nonpayable",
      "type": "function"
    }
  ],
  "bytecode": "0x608060405234801561001057600080fd5b5061018c806100206000396000f3fe608060405234801561001057600080fd5b506004361061002b5760003560e01c80637fe8888514610030575b600080fd5b61005c6004803603602081101561004657600080fd5b8101908080359060200190929190505050610076565b604051808215151515815260200191505060405180910390f35b60003360008084815260200190815260200160002060000160006101000a81548173ffffffffffffffffffffffffffffffffffffffff021916908373ffffffffffffffffffffffffffffffffffffffff160217905550426000808481526020019081526020016000206001018190555081600080848152602001908152602001600020600201819055503373ffffffffffffffffffffffffffffffffffffffff167f37f2073683f7b3e8558fd9805b052c089ebd1de4ddb0a26c2c78e310aa66cf59836040518082815260200191505060405180910390a26001905091905056fea265627a7a723158204e7b81533316f61f90b032b778641f439af6bf35b09ff7742039c49bef4d171864736f6c63430005100032",
  "source": "pragma solidity ^0.5.16;\r\n\r\ncontract DocRegistry {\r\n\r\n  struct Doc {\r\n      address sender;\r\n      uint date;\r\n      bytes32 hash;\r\n  }\r\n\r\n  mapping(bytes32 => Doc) registry;\r\n\r\n\r\n  function storeHash(bytes32 _hash) external returns (bool) {\r\n    registry[_hash].sender = msg.sender;\r\n    registry[_hash].date = now;\r\n    registry[_hash].hash = _hash;\r\n\r\n    emit HashStored(msg.sender, _hash);\r\n\r\n    return true;\r\n  }\r\n\r\n  event HashStored(address indexed _sender, bytes32 _hash);\r\n}",
  "sourcePath": "D:\\PProjects\\test\\contracts\\DocRegistry.sol",
  "compiler": {
    "name": "solc",
    "version": "0.5.16+commit.9c3226ce.Emscripten.clang"
  },
  "schemaVersion": "3.4.11",
  "updatedAt": "2023-02-24T13:45:15.958Z",
  "devdoc": {
    "methods": {}
  },
  "userdoc": {
    "methods": {}
  }
}