{
  "contractName": "HashStorage",
  "abi": [
    {
      "constant": true,
      "inputs": [],
      "name": "storedHash",
      "outputs": [
        {
          "internalType": "bytes32",
          "name": "",
          "type": "bytes32"
        }
      ],
      "payable": false,
      "stateMutability": "view",
      "type": "function"
    },
    {
      "constant": false,
      "inputs": [
        {
          "internalType": "bytes32",
          "name": "hash",
          "type": "bytes32"
        }
      ],
      "name": "storeHash",
      "outputs": [],
      "payable": false,
      "stateMutability": "nonpayable",
      "type": "function"
    },
    {
      "constant": true,
      "inputs": [],
      "name": "getStoredHash",
      "outputs": [
        {
          "internalType": "bytes32",
          "name": "",
          "type": "bytes32"
        }
      ],
      "payable": false,
      "stateMutability": "view",
      "type": "function"
    }
  ],
  "bytecode": "0x608060405234801561001057600080fd5b5060f28061001f6000396000f3fe6080604052348015600f57600080fd5b5060043610603c5760003560e01c80637fe88885146041578063b0da519514606c578063e7db7a75146088575b600080fd5b606a60048036036020811015605557600080fd5b810190808035906020019092919050505060a4565b005b607260ae565b6040518082815260200191505060405180910390f35b608e60b4565b6040518082815260200191505060405180910390f35b8060008190555050565b60005481565b6000805490509056fea265627a7a72315820916a6575236d21d36a32cdc09d3179ff8df6c5f1bd377aecbe53021beec4a51064736f6c63430005100032",
  "source": "pragma solidity ^0.5.16;\r\n\r\ncontract HashStorage {\r\n    bytes32 public storedHash;\r\n    function storeHash(bytes32 hash) public {\r\n        storedHash = hash;\r\n    }\r\n    function getStoredHash() public view returns (bytes32) {\r\n        return storedHash;\r\n    }\r\n }\r\n\r\n// contract HashStorage {\r\n//    uint public x=10;\r\n//    function set(uint _x)public{\r\n//        x=_x;\r\n   \r\n\r\n//      function getVal() public view returns (uint) {\r\n//        return x;\r\n//     }\r\n  \r\n// }",
  "sourcePath": "D:\\PProjects\\test\\contracts\\HashStorage.sol",
  "compiler": {
    "name": "solc",
    "version": "0.5.16+commit.9c3226ce.Emscripten.clang"
  },
  "schemaVersion": "3.4.11",
  "updatedAt": "2023-02-24T13:45:21.810Z",
  "networkType": "ethereum",
  "devdoc": {
    "methods": {}
  },
  "userdoc": {
    "methods": {}
  }
}